:0605C200013A00013900BE
:020465008F33D3
:10046700E4F534E5336401703C30800930810630AF
:10047700820320832AE539702912072C2080020580
:10048700342081040534053420820674042534F5AC
:100497003420830674082534F5347539018003E464
:1004A700F53985343AE5336402703030800930819C
:1004B70006308203208321E539702012072C208023
:1004C70003633A01208103633A02208203633A04FB
:0D04D700208308633A088003753901AF3AAD
:0104E40022F5
:1006E900C0F9A4B0999282F880908883C6A1868EB9
:0906F90089C7C8C18CA3BFFF91A1
:0902A1009000011201D9FF7D015A
:1002AA007E01EDC394004018EDD394035012EEA8DA
:1002BA0005088002C333D8FCFEE5A054F02EF5A051
:1002CA00EFC39430400CEFD394395006EF9006B93F
:1002DA008061EFC39441400CEFD394465006EF90EF
:1002EA0006B2804FBF48069006F9E48046BF4C0626
:1002FA009006FAE4803DBF6E069006FBE48034BFA8
:10030A0075069006FCE4802BBF70069006FDE4801B
:10031A0022BF6F069006FEE48019BF2D069006FFE5
:10032A00E48010BF2A06900700E48007BF7907908F
:0F033A000701E493F59012072C7590FF02072C32
:0A055F008B338A3489358C368D37D2
:10056900E4F538F538AE36AF377C007D2812024CF9
:10057900C3E5389FE49E5040AB33AA34A935120134
:10058900C0FFE4FD1202AAAB33AA34A9351202A1B5
:10059900AB33AA34A9359000021201D9FF7D0212AA
:1005A90002AAAB33AA34A9359000031201D9FF7D01
:0805B900031202AA053880AD0F
:0105C1002217
:10064B008B338A3489351201C0FFE4FD1202AAAB49
:10065B0033AA34A9351202A1AB33AA34A9359000C1
:10066B00021201D9FF7D021202AAAB33AA34A935BB
:0C067B009000031201D9FF7D030202AAC7
:050006002D2D2D2D0041
:1006870012074412074F7BFF7A0079067DD07C075B
:1006970012055FB2A4B2A512071A1206CB12060BF7
:0206A70080F8D9
:05075A002D2D2D2D00E6
:1005C800020D0000022600150224000B022800017B
:1005D800021F0001022207D0022C0000022A00009C
:1005E80005083030303000050F3030303000051449
:1005F8003030303000051A30303030000119020137
:020608002106C9
:10000E00E52BB4E812E52AB4030D0527E5277002A7
:10001E000526E4F52AF52BE527643C4526700D05EB
:10002E0025E52570020524E4F526F527E525641857
:10003E004524700D0529E52970020528E4F524F5FF
:10004E0025E5235403700EAE22AF23FC7D6412020D
:10005E004CED4C7012AE22AF237C017D9012024CFF
:10006E00ED4C600302011DE51F60030201BFE52098
:10007E0014B40C0040030201BF90009575F003A468
:10008E00C58325F0C583730200B90200EB0200B9E7
:10009E000201040200B90201040200B90200B90211
:1000AE0001040200B90201040200D2D3E529941F13
:1000BE00E528940050030201BF0520E520703405A9
:1000CE001F0201A4D3E529941FE5289400500302D2
:1000DE0001BF0523E52370020522020189D3E5291C
:1000EE00941DE528940050030201BF0520E5207001
:1000FE0002051F0201A4D3E529941EE528940050A1
:10010E00030201BF0520E5207002051F0201A4E5D0
:10011E001F60030201BFE52014B40C00400302016E
:10012E00BF90013D75F003A4C58325F0C58373020E
:10013E0001610201910201610201A6020161020147
:10014E00A60201610201610201A60201610201A67D
:10015E00020176D3E529941FE5289400405305202B
:10016E00E5207002051F802ED3E529941FE5289403
:10017E0000403E0523E52370020522751F00752001
:10018E00018028D3E529941CE528940040230520FE
:10019E00E5207002051F8013D3E529941EE52894EF
:1001AE0000400E0520E5207002051F7528007529F8
:0201BE0001221C
:1004E5008E2E8F2F8B308A3189327C007D0A120245
:1004F5004CED2430900003120218AE2EAF2F7C0075
:100505007D0A12024C7C007D0A12024CED2430ABB0
:1005150030AA31A932900002120218AE2EAF2F7CFC
:10052500007D6412024C7C007D0A12024CED2430E1
:10053500AB30AA31A932900001120218AE2EAF2FAE
:100545007C037DE812024C7C007D0A12024CED24EE
:0A05550030AB30AA31A932020206D1
:10060B00E52124F96030047036E51924FD600F14E0
:10061B006014240270187B007A007908801E7B001E
:10062B007A00790F80167B007A007914800E7BFF9D
:10063B007A07795A80067B007A00791A12064B22C8
:1006CB007F01120465EF30E00FE521B4060A05192E
:0E06DB00E519B405037519027F0112046522AA
:100702007F01120465EF1313543F30E00A0521E51F
:0807120021B408037521062241
:03000B00020349A4
:10034900C0E0C0F0C083C082C0D075D000C000C07A
:1003590001C002C003C004C005C006C007C28D7534
:100369008AA0758C15052BE52B7002052A12000E43
:10037900AE24AF257C007D6412023AE5272FFFE504
:10038900263EFE7B007A0079081204E5AE1FAF20F5
:100399007C007D6412023AE5292FFFE5283EFE7BA9
:1003A900007A00790F1204E57B007A007914AF23F3
:1003B900AE221204E5D007D006D005D004D003D070
:1003C90002D001D000D0D0D082D083D0F0D0E0329A
:0B074400D2AFD2A8D288C2B8D2A9223E
:0300030002075F92
:01075F003267
:10071A00E58954F004F589D28CC28D758AA0758C4E
:02072A00152296
:0B074F00E589540F2410F589D28E229A
:0C072C00C28F758B78758DEC308FFD222C
:0C073800C28F758BB0758D3C308FFD2298
:0406A900AB07AA06EB
:1006AD009000007C007D32AF03AE0212024CC3E518
:0D06BD00829FE5839E5006120738A380E659
:0106CA00220D
:030000000203D91F
:0C03D900787FE4F6D8FD75813A0204201C
:1001C000BB010689828A83E0225002E722BBFE023D
:0901D000E32289828A83E4932270
:1001D900BB010CE58229F582E5833AF583E02250DB
:1001E90006E92582F8E622BBFE06E92582F8E22225
:0D01F900E58229F582E5833AF583E493223F
:10020600BB010689828A83F0225002F722BBFE01D7
:02021600F322D1
:10021800F8BB010DE58229F582E5833AF583E8F01C
:10022800225006E92582C8F622BBFE05E92582C8C8
:02023800F222B0
:10023A00EF8DF0A4A8F0CF8CF0A428CE8DF0A42ED8
:02024A00FE2292
:10024C00BC000BBE0029EF8DF084FFADF022E4CC96
:10025C00F875F008EF2FFFEE33FEEC33FCEE9DEC5F
:10026C00984005FCEE9DFE0FD5F0E9E4CEFD22EDA5
:10027C00F8F5F0EE8420D21CFEADF075F008EF2FEF
:10028C00FFED33FD4007985006D5F0F222C398FDE0
:05029C000FD5F0EA227D
:1003E500020687E493A3F8E493A34003F68001F2A1
:1003F50008DFF48029E493A3F85407240CC8C33319
:10040500C4540F4420C8834004F456800146F6DFE7
:10041500E4800B01020408102040809005C2E47EB0
:10042500019360BCA3FF543F30E509541FFEE493DC
:10043500A360010ECF54C025E060A840B8E493A3A3
:10044500FAE493A3F8E493A3C8C582C8CAC583CACE
:10045500F0A3C8C582C8CAC583CADFE9DEE780BE86
:01060A0000EF
:00000001FF
