:050006002D2D2D2D0041
:1006B100020D0000022B00150229000B022D000E75
:1006C1000223000A022707E8022F0000021400009B
:1006D100021B000005083030303000050F3030308B
:1006E100300005163030303000051E30303030001B
:1006F100011D02012506013100023200000126011F
:10001E00E530B4E812E52FB4030D052CE52C700283
:10002E00052BE4F52FF530E52C643C452B700D05C2
:10003E002AE52A70020529E4F52BF52CE52A641829
:10004E004529700D052EE52E7002052DE4F529F5D6
:10005E002AE5285403700EAE27AF28FC7D641202E9
:10006E005CED4C7012AE27AF287C017D9012025CC5
:10007E00ED4C600302012DE52360030201CFE52460
:10008E0014B40C0040030201CF9000A575F003A438
:10009E00C58325F0C583730200C90200FB0200C9A7
:1000AE000201140200C90201140200C90200C902B1
:1000BE0001140200C90201140200E2D3E52E941FBE
:1000CE00E52D940050030201CF0524E5247034057C
:1000DE00230201B4D3E52E941FE52D9400500302A4
:1000EE0001CF0528E52870020527020199D3E52ED8
:1000FE00941DE52D940050030201CF0524E52470D4
:10010E000205230201B4D3E52E941EE52D94005072
:10011E00030201CF0524E524700205230201B4E594
:10012E002360030201CFE52414B40C004003020146
:10013E00CF90014D75F003A4C58325F0C5837302DE
:10014E0001710201A10201710201B60201710201E7
:10015E00B60201710201710201B60201710201B60D
:10016E00020186D3E52E941FE52D940040530524FD
:10017E00E52470020523802ED3E52E941FE52D94E1
:10018E0000403E0528E528700205277523007524DA
:10019E00018028D3E52E941CE52D940040230524E0
:1001AE00E524700205238013D3E52E941EE52D94CD
:1001BE0000400E0524E52470020523752D00752ED2
:0201CE0001220C
:10074E000533E5337002053264C845327003632603
:10075E00FFE51D24FD601314601C24027025E526A0
:10076E0060217B007A0079088016E52660157B00F3
:10077E007A00790F800AE52660097B007A007916E7
:04078E001207D2225A
:040571003EFE7B00CF
:100575008E348F358B368A3789387C007D0A120296
:100585005CED2430900003120228AE34AF357C00B8
:100595007D0A12025C7C007D0A12025CED2430AB00
:1005A50036AA37A938900002120228AE34AF357C3E
:1005B500007D6412025C7C007D0A12025CED243031
:1005C500AB36AA37A938900001120228AE34AF35F0
:1005D5007C037DE812025C7C007D0A12025CED243E
:0A05E50030AB36AA37A9380202161F
:10079200E52524F96030047036E51D24FD600F1450
:1007A2006014240270187B007A007908801E7B0096
:1007B2007A00790F80167B007A007916800E7BFF13
:1007C2007A00790680067B007A00791E1207D2220F
:0A08A400E5316003D28E22C28E22DD
:10065200E4FF0F1204F1EF30E00FE525B4060A05BE
:100662001DE51DB40503751D02EF30E008E525B454
:1006720007036331FFEFC31330E021E4F531C28E8B
:10068200C28F758BF0758DD8F514F515F51BF51C19
:10069200751E30751F30752030752130EF131354DD
:0E06A2003F30E00A0525E525B408037525065E
:0106B0002227
:03000B000203E508
:1003E500C0E0C0F0C083C082C0D075D000C000C0DE
:1003F50001C002C003C004C005C006C007C28D7598
:100405008AA0758C150530E5307002052F12001E87
:10041500AE29AF2A7C007D6412024AE52C2FFFE548
:100425002B7A007908120571AE23AF247C007D6418
:1004350012024AE52E2FFFE52D7A00790F1205717C
:100445007B007A007916AF28AE27120575D007D044
:1004550006D005D004D003D002D001D000D0D0D032
:0804650082D083D0F0D0E03218
:03001B0002046D6F
:10046D00C0E0C0F0C083C082C0D075D000C000C055
:10047D0001C002C003C004C005C006C007C28F750D
:10048D008BF0758DD8051CE51C7002051B64644549
:10049D001B700E0515E51570020514751B00751CF6
:1004AD0000E515643D45147004F514F515AE14AF53
:1004BD00157C007D6412024AE51C2FFFE51B3EFEF4
:1004CD007B007A00791E120575D007D006D005D0B5
:1004DD0004D003D002D001D000D0D0D082D083D0B0
:0404ED00F0D0E03239
:03000300020708E9
:10070800C0E0C0F0C083C082C0D075D000C000C0B7
:0D07180001C002C003C004C005C006C00738
:0E072500753901C2A8E539600512074E80F74C
:10073300D007D006D005D004D003D002D001D0001A
:0B074300D0D0D082D083D0F0D0E032C4
:10089300D2AFD2A8D288D2B8D2A9C2B9D2ABD2BB76
:0108A3002232
:030003000208B33D
:0108B3003212
:0607010001440001430069
:0204F1008F3D3D
:1004F300E4F53EE53D6401703C308009308106300F
:10050300820320832AE543702912000E208002050E
:100513003E208104053E053E2082067404253EF5F7
:100523003E2083067408253EF53E7543018003E4AF
:10053300F543853E44E53D640270303080093081E7
:1005430006308203208321E543702012000E2080B1
:100553000363440120810363440220820363440450
:0D0563002083086344088003754301AF4402
:010570002268
:10085500C0F9A4B0999282F880908883C6A1868E4B
:0908650089C7C8C18CA3BFFF9133
:0902B1009000011201E9FF7D013A
:1002BA007E01EDC394004018EDD394035012EEA8CA
:1002CA0005088002C333D8FCFEE5A054F02EF5A041
:1002DA00EFC39430400CEFD394395006EF900825C1
:1002EA008061EFC39441400CEFD394465006EF90DF
:1002FA00081E804FBF4806900865E48046BF4C063A
:10030A00900866E4803DBF6E06900867E48034BFBB
:10031A007506900868E4802BBF7006900869E4802F
:10032A0022BF6F0690086AE48019BF2D0690086BF9
:10033A00E48010BF2A0690086CE48007BF79079012
:0F034A00086DE493F59012000E7590FF02000EFF
:0A05EF008B3D8A3E893F8C408D4110
:1005F900E4F542F542AE40AF417C007D2812025C31
:10060900C3E5429FE49E5040AB3DAA3EA93F12017B
:10061900D0FFE4FD1202BAAB3DAA3EA93F1202B1D6
:10062900AB3DAA3EA93F9000021201E9FF7D0212EB
:1006390002BAAB3DAA3EA93F9000031201E9FF7D32
:08064900031202BA054280AD64
:010651002286
:1007D2008B3D8A3E893F1201D0FFE4FD1202BAAB83
:1007E2003DAA3EA93F1202B1AB3DAA3EA93F9000ED
:1007F200021201E9FF7D021202BAAB3DAA3EA93FF5
:0C0802009000031201E9FF7D030202BA1E
:0508AE002D2D2D2D0091
:10080E001208937BFF7A0879AE7DD07C071205EF34
:10081E00B2A4B2A512086E1208811206521208A4D2
:05082E0012079280F5A5
:10088100E58954F004F589D28CC28D758AA0758CE6
:0208910015222E
:10086E00E589540F2410F589C28EC28F758B1875C9
:03087E008DFC22CC
:0C000E00E4FFE4FE0EBE75FC0FBF0EF612
:01001A0022C3
:04083300AB07AA065F
:100837009000007C007D05AF03AE0212025CC3E5A9
:0D084700829FE5839E500612000EA380E6FE
:010854002281
:030000000203599F
:0C035900787FE4F6D8FD7581440203A013
:1001D000BB010689828A83E0225002E722BBFE022D
:0901E000E32289828A83E4932260
:1001E900BB010CE58229F582E5833AF583E02250CB
:1001F90006E92582F8E622BBFE06E92582F8E22215
:0D020900E58229F582E5833AF583E493222E
:10021600BB010689828A83F0225002F722BBFE01C7
:02022600F322C1
:10022800F8BB010DE58229F582E5833AF583E8F00C
:10023800225006E92582C8F622BBFE05E92582C8B8
:02024800F222A0
:10024A00EF8DF0A4A8F0CF8CF0A428CE8DF0A42EC8
:02025A00FE2282
:10025C00BC000BBE0029EF8DF084FFADF022E4CC86
:10026C00F875F008EF2FFFEE33FEEC33FCEE9DEC4F
:10027C00984005FCEE9DFE0FD5F0E9E4CEFD22ED95
:10028C00F8F5F0EE8420D21CFEADF075F008EF2FDF
:10029C00FFED33FD4007985006D5F0F222C398FDD0
:0502AC000FD5F0EA226D
:1003650002080EE493A3F8E493A34003F68001F298
:1003750008DFF48029E493A3F85407240CC8C33399
:10038500C4540F4420C8834004F456800146F6DF68
:10039500E4800B01020408102040809006B1E47E41
:1003A500019360BCA3FF543F30E509541FFEE4935D
:1003B500A360010ECF54C025E060A840B8E493A324
:1003C500FAE493A3F8E493A3C8C582C8CAC583CA4F
:1003D500F0A3C8C582C8CAC583CADFE9DEE780BE07
:0107070000F1
:00000001FF
