:0305B90001150029
:040320008F0F8D109E
:10032400E4F511E50F6401704830A00930A10630EE
:10033400A20320A3257F0A7E0012056C20A00205DB
:100344001120A1040511051120A20674042511F53C
:100354001120A30674082511F511851115E5106403
:1003640003705030A0FD30A1FA30A2F720A34480DE
:10037400F2E50F6402703C30A00930A10630A203FC
:1003840020A31F7F0A7E0012056C20A003631501C1
:1003940020A10363150220A20363150420A30363B1
:1003A4001508E510B4030C30A0FD30A1FA30A2F713
:0503B40030A3F4AF15B9
:0103B9002221
:10058B00C0F9A4B0999282F880908883C6A1868E18
:09059B0089C7C8C18CA3BFFF9100
:10056C00D3EF9400EE94004015E4FDFC0DBD0001AA
:0E057C000CED647C4C70F5EF1F70E51E80E204
:01058A00224E
:09027600900001120112FF7D014C
:10027F007EF1EDC394004012EDD39403500CEEA821
:10028F0005088002C333D8FCF580EFC39430400CCF
:10029F00EFD394395006EF90055B8061EFC3944123
:1002AF00400CEFD394465006EF900554804FBF4853
:1002BF000690059BE48046BF4C0690059CE4803D6C
:1002CF00BF6E0690059DE48034BF750690059EE4D1
:1002DF00802BBF700690059FE48022BF6F069005AC
:1002EF00A0E48019BF2D069005A1E48010BF2A0657
:1002FF009005A2E48007BF79079005A3E493F590DA
:10030F007F057E0012056C7590FF7F057E0002054C
:01031F006C71
:0A04B9008B0F8A1089118C128D132D
:1004C300E4F514F514AE12AF137C007D2812013F3E
:1004D300C3E5149FE49E5040AB0FAA10A91112006C
:1004E300F9FFE4FD12027FAB0FAA10A911120276E5
:1004F300AB0FAA10A911900002120112FF7D021284
:10050300027FAB0FAA10A911900003120112FF7D05
:080513000312027F051480AD04
:01051B0022BD
:100548001200F9FFE4FD12027F12027690000212F7
:100558000112FF7D0212027F900003120112FF7D3B
:040568000302027F09
:0505D5002D2D2D2D006D
:1005A4007BFF7A0579D57DD07C071204B9120194BA
:0505B40012051C80F897
:0905CC002D2D2D2D0030303030B2
:0F05BC0002090000020B0000020D0000010802FE
:040446008E0F8F1076
:10044A0078117C007D007BFF7A0579D17E007F04DC
:10045A001200D3AE0FAF107C007D0A12013FED24CB
:10046A0030F514AE0FAF107C007D0A12013F7C00FC
:10047A007D0A12013FED2430F513AE0FAF107C0058
:10048A007D6412013F7C007D0A12013FED2430F5A4
:10049A0012AE0FAF107C037DE812013F7C007D0A8B
:0E04AA0012013FED2430F5117B007A0079112C
:0104B8002221
:10051C00E50824FD600D14601024027015AF0AAEBE
:10052C0009800AAF0CAE0B8004AF0EAE0D12044660
:0C053C0080067BFF7A0579CC120548226E
:100194007D037F01120320EF30E00A0508E508B46F
:1001A4000503750802E50824FD604D14700302027E
:1001B4003924026003020275EFC31330E008050A14
:1001C400E50A70020509EF1313543F30E008E50A0D
:1001D400150A70021509EF131313541F30E005E4D8
:1001E400F509F50AD3E50A940FE5099427500302AB
:1001F4000275E4F509F50A22EFC31330E008050C93
:10020400E50C7002050BEF1313543F30E008E50CC6
:10021400150C7002150BEF131313541F30E005E493
:10022400F50BF50CD3E50C940FE50B94274042E451
:10023400F50BF50C22EFC31330E008050EE50E7044
:1002440002050DEF1313543F30E008E50E150E7050
:1002540002150DEF131313541F30E005E4F50DF5EB
:100264000ED3E50E940FE50D94274005E4F50DF546
:010274000E7B
:010275002266
:030000000203BA3E
:0C03BA00787FE4F6D8FD7581150204017F
:10000300E709F608DFFA8046E709F208DFFA803EDF
:1000130088828C83E709F0A3DFFA8032E309F608CC
:10002300DFFA8078E309F208DFFA807088828C8334
:10003300E309F0A3DFFA806489828A83E0A3F608E8
:10004300DFFA805889828A83E0A3F208DFFA804CC2
:1000530080D280FA80C680D4806980F28033801099
:1000630080A680EA809A80A880DA80E280CA803302
:1000730089828A83ECFAE493A3C8C582C8CCC5837A
:10008300CCF0A3C8C582C8CCC583CCDFE9DEE7804A
:100093000D89828A83E493A3F608DFF9ECFAA9F0C9
:1000A300EDFB2289828A83ECFAE0A3C8C582C8CC1F
:1000B300C583CCF0A3C8C582C8CCC583CCDFEADE38
:1000C300E880DB89828A83E493A3F208DFF980CC9A
:1000D30088F0EF60010E4E60C388F0ED2402B40493
:1000E3000050B9F582EB2402B4040050AF2323453A
:0600F3008223900053730C
:1000F900BB010689828A83E0225002E722BBFE0205
:09010900E32289828A83E4932237
:10011200BB010CE58229F582E5833AF583E02250A2
:1001220006E92582F8E622BBFE06E92582F8E222EC
:0D013200E58229F582E5833AF583E4932206
:10013F00BC000BBE0029EF8DF084FFADF022E4CCA4
:10014F00F875F008EF2FFFEE33FEEC33FCEE9DEC6D
:10015F00984005FCEE9DFE0FD5F0E9E4CEFD22EDB3
:10016F00F8F5F0EE8420D21CFEADF075F008EF2FFD
:10017F00FFED33FD4007985006D5F0F222C398FDEE
:05018F000FD5F0EA228B
:1003C6000205A4E493A3F8E493A34003F68001F2A4
:1003D60008DFF48029E493A3F85407240CC8C33338
:1003E600C4540F4420C8834004F456800146F6DF07
:1003F600E4800B01020408102040809005B9E47ED9
:10040600019360BCA3FF543F30E509541FFEE493FB
:10041600A360010ECF54C025E060A840B8E493A3C2
:10042600FAE493A3F8E493A3C8C582C8CAC583CAED
:10043600F0A3C8C582C8CAC583CADFE9DEE780BEA5
:0105CB00002F
:00000001FF
