:03060600012100CF
:04031B008F088D09B1
:10031F00E4F50AE508640170443080093081063045
:10032F008203208321120619208002050A208104EE
:10033F00050A050A2082067404250AF50A20830699
:10034F007408250AF50A850A21E5096403704C3003
:10035F0080FD3081FA3082F720834080F2E5086417
:10036F0002703830800930810630820320831B12DF
:10037F00061920800363210120810363210220825B
:10038F0003632104208303632108E509B4030C30C0
:0D039F0080FD3081FA3082F73083F4AF2109
:0103AC00222E
:1005D400C0F9A4B0999282F880908883C6A1868ECF
:0905E40089C7C8C18CA3BFFF91B7
:09027900900001120115FF7D0146
:100282007EF1EDC394004012EDD39403500CEEA81E
:1002920005088002C333D8FCF5A0EFC39430400CAC
:1002A200EFD394395006EF9005A48061EFC39441D7
:1002B200400CEFD394465006EF90059D804FBF4807
:1002C200069005E4E48046BF4C069005E5E4803DD7
:1002D200BF6E069005E6E48034BF75069005E7E43C
:1002E200802BBF70069005E8E48022BF6F06900560
:1002F200E9E48019BF2D069005EAE48010BF2A06C2
:100302009005EBE48007BF79079005ECE493F59044
:090312001206197590FF0206198C
:0A04AC008B0B8A0C890D8C0E8D0F4E
:1004B600E4F510F510AE0EAF0F7C007D2812014258
:1004C600C3E5109FE49E5040AB0BAA0CA90D120089
:1004D600FCFFE4FD120282AB0BAA0CA90D120279F5
:1004E600AB0BAA0CA90D900002120115FF7D02129A
:1004F6000282AB0BAA0CA90D900003120115FF7D19
:0805060003120282051080AD12
:01050E0022CA
:10050F008B1E8A1F89201200FCFFE4FD120282ABB2
:10051F001EAA1FA920120279AB1EAA1FA9209000A4
:10052F0002120115FF7D02120282AB1EAA1FA92023
:0C053F00900003120115FF7D03020282F0
:050649002D2D2D2D00F8
:1005ED0012063A1206437BFF7A0679497DD07C07C5
:0905FD001204ACB2A4B2A580FE08
:090631002D2D2D2D00303030304C
:0F0609000212000002140000021600000111028C
:040439008E188F1971
:10043D00781A7C007D007BFF7A0679367E007F047A
:10044D001200D6AE18AF197C007D0A120142ED24C0
:10045D0030F51DAE18AF197C007D0A1201427C00EB
:10046D007D0A120142ED2430F51CAE18AF197C0047
:10047D007D641201427C007D0A120142ED2430F5AB
:10048D001BAE18AF197C037DE81201427C007D0A7A
:0E049D00120142ED2430F51A7B007A00791A24
:0104AB00222E
:10058600E51124FD600D14601024027015AF13AE42
:1005960012800AAF15AE148004AF17AE16120439D6
:0C05A60080067BFF7A06793112050F22D7
:100197007D037F0112031BEF30E00A0511E511B45F
:1001A7000503751102E51124FD604D147003020269
:1001B7003C24026003020278EFC31330E008051302
:1001C700E51370020512EF1313543F30E008E513EF
:1001D700151370021512EF131313541F30E005E4C3
:1001E700F512F513D3E513940FE512942750030284
:1001F7000278E4F512F51322EFC31330E008051572
:10020700E51570020514EF1313543F30E008E515A8
:10021700151570021514EF131313541F30E005E47E
:10022700F514F515D3E515940FE51494274042E42A
:10023700F514F51522EFC31330E0080517E517701D
:10024700020516EF1313543F30E008E51715177032
:10025700021516EF131313541F30E005E4F516F5D6
:1002670017D3E517940FE51694274005E4F516F51F
:01027700176F
:010278002263
:09063A00D2AFD2A8D288C2B822C6
:0300030002054BA8
:10054B00C0E0C0F0C083C082C0D075D000C000C076
:10055B0001C002C003C004C005C006C0071201974A
:10056B00D007D006D005D004D003D002D001D000E4
:0B057B00D0D0D082D083D0F0D0E0328E
:06064300758901D28C2232
:0C061900C28D758A78758CEC308DFD2246
:0C062500C28D758AB0758C3C308DFD22B2
:0405B200AB07AA06E3
:1005B6009000007C007D32AF03AE02120142C3E51B
:0D05C600829FE5839E5006120625A380E665
:0105D3002205
:030000000203AD4B
:0C03AD00787FE4F6D8FD7581210203F48E
:10000600E709F608DFFA8046E709F208DFFA803EDC
:1000160088828C83E709F0A3DFFA8032E309F608C9
:10002600DFFA8078E309F208DFFA807088828C8331
:10003600E309F0A3DFFA806489828A83E0A3F608E5
:10004600DFFA805889828A83E0A3F208DFFA804CBF
:1000560080D280FA80C680D4806980F28033801096
:1000660080A680EA809A80A880DA80E280CA8033FF
:1000760089828A83ECFAE493A3C8C582C8CCC58377
:10008600CCF0A3C8C582C8CCC583CCDFE9DEE78047
:100096000D89828A83E493A3F608DFF9ECFAA9F0C6
:1000A600EDFB2289828A83ECFAE0A3C8C582C8CC1C
:1000B600C583CCF0A3C8C582C8CCC583CCDFEADE35
:1000C600E880DB89828A83E493A3F208DFF980CC97
:1000D60088F0EF60010E4E60C388F0ED2402B40490
:1000E6000050B9F582EB2402B4040050AF23234537
:0600F60082239000567306
:1000FC00BB010689828A83E0225002E722BBFE0202
:09010C00E32289828A83E4932234
:10011500BB010CE58229F582E5833AF583E022509F
:1001250006E92582F8E622BBFE06E92582F8E222E9
:0D013500E58229F582E5833AF583E4932203
:10014200BC000BBE0029EF8DF084FFADF022E4CCA1
:10015200F875F008EF2FFFEE33FEEC33FCEE9DEC6A
:10016200984005FCEE9DFE0FD5F0E9E4CEFD22EDB0
:10017200F8F5F0EE8420D21CFEADF075F008EF2FFA
:10018200FFED33FD4007985006D5F0F222C398FDEB
:050192000FD5F0EA2288
:1003B9000205EDE493A3F8E493A34003F68001F268
:1003C90008DFF48029E493A3F85407240CC8C33345
:1003D900C4540F4420C8834004F456800146F6DF14
:1003E900E4800B0102040810204080900606E47E98
:1003F900019360BCA3FF543F30E509541FFEE49309
:10040900A360010ECF54C025E060A840B8E493A3CF
:10041900FAE493A3F8E493A3C8C582C8CAC583CAFA
:10042900F0A3C8C582C8CAC583CADFE9DEE780BEB2
:0106180000E1
:00000001FF
