:050006002D2D2D2D0041
:1006B100020D0000022A00150228000B022C000E78
:1006C1000223000A022607E8022E0000021400009D
:1006D100021B000005083030303000050F3030308B
:1006E100300005163030303000051E30303030001B
:0906F100011D0201250601300083
:10001E00E52FB4E812E52EB4030D052BE52B700287
:10002E00052AE4F52EF52FE52B643C452A700D05C7
:10003E0029E52970020528E4F52AF52BE52964182F
:10004E004528700D052DE52D7002052CE4F528F5DB
:10005E0029E5275403700EAE26AF27FC7D641202ED
:10006E005CED4C7012AE26AF277C017D9012025CC7
:10007E00ED4C600302012DE52360030201CFE52460
:10008E0014B40C0040030201CF9000A575F003A438
:10009E00C58325F0C583730200C90200FB0200C9A7
:1000AE000201140200C90201140200C90200C902B1
:1000BE0001140200C90201140200E2D3E52D941FBF
:1000CE00E52C940050030201CF0524E5247034057D
:1000DE00230201B4D3E52D941FE52C9400500302A6
:1000EE0001CF0527E52770020526020199D3E52DDC
:1000FE00941DE52C940050030201CF0524E52470D5
:10010E000205230201B4D3E52D941EE52C94005074
:10011E00030201CF0524E524700205230201B4E594
:10012E002360030201CFE52414B40C004003020146
:10013E00CF90014D75F003A4C58325F0C5837302DE
:10014E0001710201A10201710201B60201710201E7
:10015E00B60201710201710201B60201710201B60D
:10016E00020186D3E52D941FE52C940040530524FF
:10017E00E52470020523802ED3E52D941FE52C94E3
:10018E0000403E0527E527700205267523007524DD
:10019E00018028D3E52D941CE52C940040230524E2
:1001AE00E524700205238013D3E52D941EE52C94CF
:1001BE0000400E0524E52470020523752C00752DD4
:0201CE0001220C
:040571003EFE7B00CF
:100575008E318F328B338A3489357C007D0A1202A5
:100585005CED2430900003120228AE31AF327C00BE
:100595007D0A12025C7C007D0A12025CED2430AB00
:1005A50033AA34A935900002120228AE31AF327C4D
:1005B500007D6412025C7C007D0A12025CED243031
:1005C500AB33AA34A935900001120228AE31AF32FF
:1005D5007C037DE812025C7C007D0A12025CED243E
:0A05E50030AB33AA34A93502021628
:10070100E52524F96030047036E51D24FD600F14E1
:100711006014240270187B007A007908801E7B0027
:100721007A00790F80167B007A007916800E7BFFA4
:100731007A00790680067B007A00791E1207412231
:0A081300E5306003D28E22C28E226F
:10065200E4FF0F1204F1EF30E00FE525B4060A05BE
:100662001DE51DB40503751D02EF30E008E525B454
:1006720007036330FFEFC31330E021E4F530C28E8D
:10068200C28F758BF0758DD8F514F515F51BF51C19
:10069200751E30751F30752030752130EF131354DD
:0E06A2003F30E00A0525E525B408037525065E
:0106B0002227
:03000B000203E508
:1003E500C0E0C0F0C083C082C0D075D000C000C0DE
:1003F50001C002C003C004C005C006C007C28D7598
:100405008AA0758C15052FE52F7002052E12001E8A
:10041500AE28AF297C007D6412024AE52B2FFFE54B
:100425002A7A007908120571AE23AF247C007D6419
:1004350012024AE52D2FFFE52C7A00790F1205717E
:100445007B007A007916AF27AE26120575D007D046
:1004550006D005D004D003D002D001D000D0D0D032
:0804650082D083D0F0D0E03218
:03001B0002046D6F
:10046D00C0E0C0F0C083C082C0D075D000C000C055
:10047D0001C002C003C004C005C006C007C28F750D
:10048D008BF0758DD8051CE51C7002051B64644549
:10049D001B700E0515E51570020514751B00751CF6
:1004AD0000E515643D45147004F514F515AE14AF53
:1004BD00157C007D6412024AE51C2FFFE51B3EFEF4
:1004CD007B007A00791E120575D007D006D005D0B5
:1004DD0004D003D002D001D000D0D0D082D083D0B0
:0404ED00F0D0E03239
:10080200D2AFD2A8D288C2B8D2A9C2B9D2ABD2BB17
:0108120022C3
:03000300020822CE
:0108220032A3
:0606FA00013D00013C007F
:0204F1008F3644
:1004F300E4F537E5366401703C308009308106301D
:10050300820320832AE53C702912000E2080020515
:10051300372081040537053720820674042537F513
:100523003720830674082537F537753C018003E4CB
:10053300F53C85373DE53664027030308009308103
:1005430006308203208321E53C702012000E2080B8
:1005530003633D01208103633D02208203633D0465
:0D056300208308633D088003753C01AF3D17
:010570002268
:1007C400C0F9A4B0999282F880908883C6A1868EDD
:0907D40089C7C8C18CA3BFFF91C5
:0902B1009000011201E9FF7D013A
:1002BA007E01EDC394004018EDD394035012EEA8CA
:1002CA0005088002C333D8FCFEE5A054F02EF5A041
:1002DA00EFC39430400CEFD394395006EF90079453
:1002EA008061EFC39441400CEFD394465006EF90DF
:1002FA00078D804FBF48069007D4E48046BF4C065E
:10030A009007D5E4803DBF6E069007D6E48034BFDF
:10031A0075069007D7E4802BBF70069007D8E48053
:10032A0022BF6F069007D9E48019BF2D069007DA1D
:10033A00E48010BF2A069007DBE48007BF790790A4
:0F034A0007DCE493F59012000E7590FF02000E91
:0A05EF008B368A3789388C398D3A33
:1005F900E4F53BF53BAE39AF3A7C007D2812025C4D
:10060900C3E53B9FE49E5040AB36AA37A938120197
:10061900D0FFE4FD1202BAAB36AA37A9381202B1EB
:10062900AB36AA37A9389000021201E9FF7D021200
:1006390002BAAB36AA37A9389000031201E9FF7D47
:08064900031202BA053B80AD6B
:010651002286
:100741008B368A3789381201D0FFE4FD1202BAAB29
:1007510036AA37A9381202B1AB36AA37A9389000A8
:10076100021201E9FF7D021202BAAB36AA37A9389B
:0C0771009000031201E9FF7D030202BAB0
:05081D002D2D2D2D0022
:10077D001208027BFF7A08791D7DD07C071205EFE8
:10078D00B2A4B2A51207DD1207F012065212081319
:05079D0012070180F5C8
:1007F000E58954F004F589D28CC28D758AA0758C78
:020800001522BF
:1007DD00E589540F2410F589C28EC28F758B18755B
:0307ED008DFC225E
:0C000E00E4FFE4FE0EBE75FC0FBF0EF612
:01001A0022C3
:0407A200AB07AA06F1
:1007A6009000007C007D05AF03AE0212025CC3E53B
:0D07B600829FE5839E500612000EA380E690
:0107C3002213
:030000000203599F
:0C035900787FE4F6D8FD75813D0203A01A
:1001D000BB010689828A83E0225002E722BBFE022D
:0901E000E32289828A83E4932260
:1001E900BB010CE58229F582E5833AF583E02250CB
:1001F90006E92582F8E622BBFE06E92582F8E22215
:0D020900E58229F582E5833AF583E493222E
:10021600BB010689828A83F0225002F722BBFE01C7
:02022600F322C1
:10022800F8BB010DE58229F582E5833AF583E8F00C
:10023800225006E92582C8F622BBFE05E92582C8B8
:02024800F222A0
:10024A00EF8DF0A4A8F0CF8CF0A428CE8DF0A42EC8
:02025A00FE2282
:10025C00BC000BBE0029EF8DF084FFADF022E4CC86
:10026C00F875F008EF2FFFEE33FEEC33FCEE9DEC4F
:10027C00984005FCEE9DFE0FD5F0E9E4CEFD22ED95
:10028C00F8F5F0EE8420D21CFEADF075F008EF2FDF
:10029C00FFED33FD4007985006D5F0F222C398FDD0
:0502AC000FD5F0EA226D
:1003650002077DE493A3F8E493A34003F68001F22A
:1003750008DFF48029E493A3F85407240CC8C33399
:10038500C4540F4420C8834004F456800146F6DF68
:10039500E4800B01020408102040809006B1E47E41
:1003A500019360BCA3FF543F30E509541FFEE4935D
:1003B500A360010ECF54C025E060A840B8E493A324
:1003C500FAE493A3F8E493A3C8C582C8CAC583CA4F
:1003D500F0A3C8C582C8CAC583CADFE9DEE780BE07
:0107000000F8
:00000001FF
