:06060A00013000012F0089
:0403D9008F298D2AB1
:1003DD00E4F52BE5296401703E308009308106304B
:1003ED00820320832AE52F70291206F5208002054D
:1003FD002B208104052B052B2082067404252BF55B
:10040D002B2083067408252BF52B752F018003E413
:10041D00F52F852B30803EE5296402703830800938
:10042D0030810630820320831B1206F52080036382
:10043D003001208103633002208203633004208366
:10044D0003633008E52AB4030C3080FD3081FA30A7
:07045D0082F73083F4AF3099
:010464002275
:1006B400C0F9A4B0999282F880908883C6A1868EEE
:0906C40089C7C8C18CA3BFFF91D6
:0902A1009000011201D9FF7D015A
:1002AA007E01EDC394004018EDD394035012EEA8DA
:1002BA0005088002C333D8FCFEE5A054F02EF5A051
:1002CA00EFC39430400CEFD394395006EF90068474
:1002DA008061EFC39441400CEFD394465006EF90EF
:1002EA00067D804FBF48069006C4E48046BF4C0690
:1002FA009006C5E4803DBF6E069006C6E48034BF12
:10030A0075069006C7E4802BBF70069006C8E48085
:10031A0022BF6F069006C9E48019BF2D069006CA4F
:10032A00E48010BF2A069006CBE48007BF790790C5
:0F033A0006CCE493F5901206F57590FF0206F5D8
:0A056B008B298A2A892B8C2C8D2DF8
:10057500E4F52EF52EAE2CAF2D7C007D2812024C15
:10058500C3E52E9FE49E5040AB29AA2AA92B120150
:10059500C0FFE4FD1202AAAB29AA2AA92B1202A1C7
:1005A500AB29AA2AA92B9000021201D9FF7D0212BC
:1005B50002AAAB29AA2AA92B9000031201D9FF7D13
:0805C500031202AA052E80AD0D
:0105CD00220B
:1005CE008B298A2A892B1201C0FFE4FD1202AAABE5
:1005DE0029AA2AA92B1202A1AB29AA2AA92B90007B
:1005EE00021201D9FF7D021202AAAB29AA2AA92B57
:0C05FE009000031201D9FF7D030202AA45
:050006002D2D2D2D0041
:1006700012070D1207187BFF7A0079067DD07C07E0
:1006800012056BB2A4B2A51206E31206CD12064102
:0206900080F8F0
:050723002D2D2D2D001D
:10061000021E0000021C000002200001021800015E
:10062000021A07D0022200000508303030300005E1
:100630000D303030300005123030303000011702FC
:10000E00E523B4E812E522B4030D051FE51F7002C7
:10001E00051EE4F522F523E51F643C451E700D0513
:10002E001DE51D7002051CE4F51EF51FE51D641887
:10003E00451C700D0521E52170020520E4F51CF527
:10004E001DE51B5403700EAE1AAF1BFC7D6412022D
:10005E004CED4C7012AE1AAF1B7C017D9012024C0F
:10006E00ED4C600302011DE51860030201BFE519A6
:10007E0014B40C0040030201BF90009575F003A468
:10008E00C58325F0C583730200B90200EB0200B9E7
:10009E000201040200B90201040200B90200B90211
:1000AE0001040200B90201040200D2D3E521941F1B
:1000BE00E520940050030201BF0519E519703405BF
:1000CE00180201A4D3E521941FE5209400500302E9
:1000DE0001BF051BE51B7002051A020189D3E5213C
:1000EE00941DE520940050030201BF0519E5197017
:1000FE000205180201A4D3E521941EE520940050B8
:10010E00030201BF0519E519700205180201A4E5E5
:10011E001860030201BFE51914B40C00400302017C
:10012E00BF90013D75F003A4C58325F0C58373020E
:10013E0001610201910201610201A6020161020147
:10014E00A60201610201610201A60201610201A67D
:10015E00020176D3E521941FE52094004053051942
:10016E00E51970020518802ED3E521941FE5209421
:10017E0000403E051BE51B7002051A751800751927
:10018E00018028D3E521941CE52094004023051915
:10019E00E519700205188013D3E521941EE520940D
:1001AE0000400E0519E5197002051875200075211D
:0201BE0001221C
:1004F1008E248F258B268A2789287C007D0A12026B
:100501004CED2430900003120218AE24AF257C007C
:100511007D0A12024C7C007D0A12024CED2430ABA4
:1005210026AA27A928900002120218AE24AF257C22
:10053100007D6412024C7C007D0A12024CED2430D5
:10054100AB26AA27A928900001120218AE24AF25D4
:100551007C037DE812024C7C007D0A12024CED24E2
:0A05610030AB26AA27A928020206E3
:10064100E51724FD600F146014240270187B007AF2
:1006510000790880167B007A00790D800E7B007A84
:0F06610000791280067BFF7A0779231205CE22DB
:1006CD007D037F011203D9EF30E00A0517E517B45A
:0606DD000503751702225F
:03000B00020349A4
:10034900C0E0C0F0C083C082C0D075D000C000C07A
:1003590001C002C003C004C005C006C007C28D7534
:100369008AA0758C150523E5237002052212000E5B
:10037900AE1CAF1D7C007D6412023AE51F2FFFE51C
:100389001E3EFE7B007A0079081204F1AE18AF19FF
:100399007C007D6412023AE5212FFFE5203EFE7BB9
:1003A900007A00790D1204F17B007A007912AF1BF3
:1003B900AE1A1204F1D007D006D005D004D003D06C
:1003C90002D001D000D0D0D082D083D0F0D0E0329A
:0B070D00D2AFD2A8D288C2B8D2A92275
:03000300020728C9
:01072800329E
:1006E300E58954F004F589D28CC28D758AA0758C86
:0206F3001522CE
:0B071800E589540F2410F589D28E22D1
:0C06F500C28F758B78758DEC308FFD2264
:0C070100C28F758BB0758D3C308FFD22CF
:04069200AB07AA0602
:100696009000007C007D32AF03AE0212024CC3E52F
:0D06A600829FE5839E5006120701A380E6A7
:0106B3002224
:0300000002046592
:0C046500787FE4F6D8FD7581300204AC0D
:1001C000BB010689828A83E0225002E722BBFE023D
:0901D000E32289828A83E4932270
:1001D900BB010CE58229F582E5833AF583E02250DB
:1001E90006E92582F8E622BBFE06E92582F8E22225
:0D01F900E58229F582E5833AF583E493223F
:10020600BB010689828A83F0225002F722BBFE01D7
:02021600F322D1
:10021800F8BB010DE58229F582E5833AF583E8F01C
:10022800225006E92582C8F622BBFE05E92582C8C8
:02023800F222B0
:10023A00EF8DF0A4A8F0CF8CF0A428CE8DF0A42ED8
:02024A00FE2292
:10024C00BC000BBE0029EF8DF084FFADF022E4CC96
:10025C00F875F008EF2FFFEE33FEEC33FCEE9DEC5F
:10026C00984005FCEE9DFE0FD5F0E9E4CEFD22EDA5
:10027C00F8F5F0EE8420D21CFEADF075F008EF2FEF
:10028C00FFED33FD4007985006D5F0F222C398FDE0
:05029C000FD5F0EA227D
:10047100020670E493A3F8E493A34003F68001F22B
:1004810008DFF48029E493A3F85407240CC8C3338C
:10049100C4540F4420C8834004F456800146F6DF5B
:1004A100E4800B010204081020408090060AE47EDB
:1004B100019360BCA3FF543F30E509541FFEE49350
:1004C100A360010ECF54C025E060A840B8E493A317
:1004D100FAE493A3F8E493A3C8C582C8CAC583CA42
:1004E100F0A3C8C582C8CAC583CADFE9DEE780BEFA
:0106400000B9
:00000001FF
