:050006002D2D2D2D0041
:100DE100023400220232000C023600070223000BFB
:100DF100023007E80239000002130000021A000065
:100E0100022900230226000C05093030303000058C
:100E11000E303030300005153030303000051E30D6
:100E210030303000052B3132333500011C020125F1
:100E310006013D00010801013B01023E00000128BD
:0D0E4100FF014000011D00013C00013800D0
:10062600E53AB4E812E539B4030D0535E53570024F
:100636000534E4F539F53AC3E535943CE5349400E0
:1006460040140533E5337002053274C42535F5359B
:1006560074FF3534F534C3E5339418E5329400401D
:10066600140537E5377002053674E82533F533741B
:10067600FF3532F532C3E5319410E5309427400C4E
:1006860074F02531F53174D83530F530D3E524943E
:100696000CE52394004006752300752401E53154CA
:1006A60003700EAE30AF31FC7D64120A66ED4C70FD
:1006B60012AE30AF317C017D90120A66ED4C6003BC
:1006C600020775E5236003020823E52414B40C0031
:1006D60040030208239006E975F003A4C58325F0BC
:1006E600C5837302070D02073F02070D02075A0270
:1006F600070D02075A02070D02070D02075A0207E5
:100706000D02075A020726D3E537941FE5369400F3
:1007160050030208230524E524700205230207CCB2
:10072600D3E537941FE536940050030208230531BC
:10073600E531700205300207E3D3E537941DE5364F
:10074600940050030208230524E52470020523744F
:10075600E3020819D3E537941EE5369400500302E8
:1007660008230524E5247002052374E2020819E52E
:10077600236003020823E52414B40C004003020896
:100786002390079575F003A4C58325F0C5837302EE
:1007960007B90207ED0207B90208040207B9020801
:1007A600040207B90207B90208040207B9020804DD
:1007B6000207D0D3E537941FE5369400405F052441
:1007C600E5247002052374E18049D3E537941FE5DB
:1007D60036940040480531E5317002053075230036
:1007E60075240174E1802CD3E537941CE53694001A
:1007F600402B0524E5247002052374E48015D3E517
:1008060037941EE536940040140524E5247002054D
:0E0816002374E22537F53774FF3536F53622A8
:100CBF00120626AE32AF337C007D64120A54E5353E
:0C0CCF002FFFE5343EFE7B007A0079091F
:100CDB008E4C8F4D8B4E8A4F89507C007D0A120AA9
:100CEB0066ED2430900003120A32AE4CAF4D7C00FF
:100CFB007D0A120A667C007D0A120A66ED2430AB6F
:100D0B004EAA4FA950900002120A32AE4CAF4D7C46
:100D1B00007D64120A667C007D0A120A66ED24309F
:100D2B00AB4EAA4FA950900001120A32AE4CAF4DF8
:100D3B007C037DE8120A667C007D0A120A66ED24AC
:0A0D4B0030AB4EAA4FA950020A2057
:100ABB00053FE53F7002053EB4DC0DE53EB405088D
:100ACB006328FFE4F53EF53FE52524F9603A146011
:100ADB003F14606224036003020B7AE51C24FD6063
:100AEB000F146014240270187B007A007909805D62
:100AFB007B007A00790E80557B007A007915804D4A
:100B0B007BFF7A00790680457B007A00791E80573F
:100B1B00E52860127B007A00792B120EECE5406021
:100B2B0010C2A4C2A5227B007A00792BAD3B120820
:100B3B0024D2A4D2A522E51C24FD601314601E242C
:100B4B0002702CE5287B007A007909601D8018E57E
:100B5B00287B007A00790E6002800C800DE5287BE3
:100B6B00007A0079156003020EECAD0812082422FE
:0A111600E53D6003D28E22C28E2256
:1003B600E4F5457F01120B7B8F45E54530E01BE5F3
:1003C60035B52A16E534B52911E533B5270CE532DE
:1003D600B52607E54060037538FFE54530E00FE5D3
:1003E60025B4060A051CE51CB40503751C02E54583
:1003F60030E008E525B40703633DFFE54530E00836
:10040600E525B408036340FFE545C313FF30E02646
:10041600E525B40721E4F53DC28EC28F758BF075D4
:100426008DD8F513F514F51AF51B751E30751F30AA
:10043600752030752130EF30E011E525B4080C0544
:100446003BE53BC394054003753B01E54513135457
:100456003FFF30E012E5256408600C0525E525C35D
:1004660094084003752506EF20E00302054EE525B6
:100476006408600302054EE53B24FE603314605BAE
:1004860014607B24036003020532AE29AF2A7C0088
:100496007D0A120A66ED64094C600B052AE52A708E
:1004A6005B052902053274F7252AF52A74FF802593
:1004B600AE29AF2A7C007D0A120A66C3EF9406EEC7
:1004C60094005009740A252AF52AE4800874CE257A
:1004D6002AF52A74FF3529F5298051E5272401FFDD
:1004E600E43526FEC3EF9418EE94004007E4F526A3
:1004F600F52780380527E52770020526802EE52793
:10050600240AFFE43526FEC3EF9418EE940040114A
:10051600AE26AF277C007D0A120A668C268D2780C0
:100526000B740A2527F527E43526F526AE26AF27D0
:100536007C007D64120A54E52A2FFFE5293EFE7BE6
:10054600007A00792B120CDBE545131313541F2098
:10055600E0030205FDE525640860030205FDE53BB1
:1005660024FE602314603E1460552403706DAE298A
:10057600AF2A7C007D0A120A66ED4C605EE52A15FC
:100586002A705815298054C3E52A940AE52994004F
:1005960050028001C3404474F6252AF52A74FF35BB
:1005A60029F5298036C3E5279401E52694005002F3
:1005B6008001C34026E527152770021526801CC337
:1005C600E527940AE526940050028001C3400C7486
:1005D600F62527F52774FF3526F526AE26AF277CA8
:1005E600007D64120A54E52A2FFFE5293EFE7B00B2
:1005F6007A00792B120CDBE545C4540F30E002D2A9
:10060600A8E545C413540730E015E51D7007852598
:0F0616001D75250822851D25E4F51DC2A4C2A56A
:0106250022B2
:10101900E535B52A21E534B5291CE533B52717E5AA
:1010290032B52612E540600EE53860030211257FCE
:0A103900037E0002108DE4F538225A
:03000B00020F677A
:100F6700C0E0C0F0C083C082C0D075D000C000C050
:100F770001C002C003C004C005C006C007C28D750A
:100F87008AA0758C15053AE53A70020539120CBF2F
:100F9700AE23AF247C007D64120A54E5372FFFE5AA
:100FA700363EFE7B007A00790E120CDB7B007A005E
:100FB7007915AF31AE30120CDBD007D006D005D093
:100FC70004D003D002D001D000D0D0D082D083D0BB
:040FD700F0D0E03244
:03001B00020E686A
:100E6800C0E0C0F0C083C082C0D075D000C000C050
:100E780001C002C003C004C005C006C007C28F7508
:100E88008BF0758DD8051BE51B7002051A64644547
:100E98001A700E0514E51470020513751A00751BF7
:100EA80000E514643D45137004F513F514AE13AF53
:100EB800147C007D64120A54E51B2FFFE51A3EFEE0
:100EC8007B007A00791E120CDBD007D006D005D043
:100ED80004D003D002D001D000D0D0D082D083D0AB
:040EE800F0D0E03234
:0300030002001EDA
:10001E00C0E0C0F0C083C082C0D075D000C000C0A8
:0D002E0001C002C003C004C005C006C00729
:10003B00754101755A01750801751C0285253C75C2
:0B004B002509C2A8E541700302039BD9
:10005600754200120ABB7F01120B7B8F42E54230CC
:10006600E00A051CE51CB40503751C02E542C31332
:1000760030E00A0508E508B40503750801E54213F2
:1000860013543F20E00302017EE51CB4043AE50860
:1000960024FE601814601914601F24036003020113
:1000A600520531E531703E0530020152740A800274
:1000B60074642531F531E4800874E82531F531742E
:1000C600033530F530020152E51CB4033EE5082441
:1000D600FE601414601E1460252403706F0537E556
:1000E60037700205368065740A2537F537E43536EC
:1000F600F53680580524E52470020523804E740ADF
:100106002524F524E43523F5238041E51CB4023C7F
:10011600E50824FE601414601E1460252403702C68
:100126000535E535702605348022740A2535F53502
:10013600E43534F53480150533E533700F05328028
:100146000B740A2533F533E43532F532120CBFAEA3
:1001560023AF247C007D64120A54E5372FFFE53671
:100166003EFE7B007A00790E120CDB7B007A00796A
:1001760015AF31AE30120CDBE542131313541F20BA
:10018600E003020384E51C6404600302021CE50824
:1001960024FE602814603B146054240360030203A9
:1001A60058C3E5319401E530940050028001C34004
:1001B6005CE531153170021530020358C3E5319400
:1001C6000AE530940050028001C3400474F680149E
:1001D600803BC3E5319464E530940050028001C34E
:1001E600400A749C2531F53174FF801A801FC3E5DF
:1001F6003194E8E530940350028001C3400F74182F
:100206002531F53174FC3530F53002035875300070
:10021600753100020358E51C640360030202BEE563
:100226000824FE602814604D1460652403600302F0
:100236000358C3E5379401E536940050028001C3A4
:10024600402AE537153770021536020358C3E537DD
:10025600940AE536940050028001C3400F74F625D7
:1002660037F53774FF3536F536020358753600759F
:100276003700020358C3E5249401E5239400500295
:100286008001C3402AE52415247002152302035871
:10029600C3E524940AE523940050028001C3400F6D
:1002A60074F62524F52474FF3523F52302035875C7
:1002B6002300752400020358E51C64026003020350
:1002C60058E50824FE602714604A14606124036020
:1002D60003020358C3E5359401E5349400500280C7
:1002E60001C34028E5351535700215348064C3E531
:1002F60035940AE534940050028001C3400E74F62A
:100306002535F53574FF3534F5348046753400757A
:100316003500803EC3E5339401E5329400500280F7
:1003260001C34028E5331533700215328024C3E536
:1003360033940AE532940050028001C3400E74F6ED
:100346002533F53374FF3532F53280067532007584
:100356003300120CBFAE23AF247C007D64120A5416
:10036600E5372FFFE5363EFE7B007A00790E120C4C
:10037600DB7B007A007915AF31AE30120CDBE5423B
:10038600C4540F20E00302004F754100853C2575DB
:020396003C0029
:0303980002004F11
:10039B00D007D006D005D004D003D002D001D000B6
:0B03AB00D0D0D082D083D0F0D0E03260
:1010DE00D2AFD2A8D288D2B8C2AAD2A9C2B9D2AB44
:0310EE00D2BB2250
:060E4E00015B00015A00E7
:020B7B008F46A3
:100B7D00E4F547E5466401705430800F30810C3048
:100B8D00820930830630840320853CE55A703B1280
:100B9D00000E20800205472081040547054720826D
:100BAD000674042547F54720830674082547F54745
:100BBD0020840674102547F54720850674202547A7
:100BCD00F547755A018003E4F55A85475BE54664A0
:100BDD0002704230800F30810C3082093083063034
:100BED00840320852DE55A702C12000E208003639E
:100BFD005B01208103635B02208203635B0420831E
:100C0D0003635B08208403635B10208508635B200E
:070C1D008003755A01AF5B73
:010C240022AD
:1010AD0012772A2647868237020603C29A628A8BF6
:0910BD0043DA13520BE2EFFF4687
:080E54000258000002560000E4
:0111280022A4
:100C25007E01EDC39400401BEDD394035015EEA84F
:100C350005088002C333D8FCF4540FFEE5A054F038
:100C45002EF5A0EFC39430400CEFD394395006EF46
:100C550090107D8061EFC39441400CEFD3944650D2
:100C650006EF901076804FBF48069010BDE4804691
:100C7500BF4C069010BEE4803DBF6E069010BFE4E9
:100C85008034BF75069010C0E4802BBF70069010AD
:100C9500C1E48022BF6F069010C2E48019BF2D0603
:100CA5009010C3E48010BF2A069010C4E48007BFEB
:090CB50079079010C5E493F59055
:010CBE002213
:0A0FDB008B458A4689478C488D49F2
:100FE500E4F54AF54BF54AF54BE549AE487803C3B8
:100FF50033CE33CED8F9FFC3E54B9FE54A9E501358
:10100500AB45AA46A947120EEC054BE54B70DA0530
:031015004A80D638
:0110180022B5
:100EEC000559E55970020558640A4558700D0557A7
:100EFC00E55770020556E4F558F559E556705BE573
:100F0C0057B408005054900F19F8282873020F3169
:100F1C00020F5B020F39020F5B020F44020F5B02E0
:100F2C000F4F020F5E1209DAFFE4FD801F900001E3
:100F3C001209F3FF7D0180149000021209F3FF7D6A
:100F4C000280099000031209F3FF7D03020C2502B5
:0B0F5C001128121128E4F556F5572269
:10082400ED24FE60701470030208F41470030209CE
:1008340065240360030209D90559E5597002055876
:10084400640A4558700D0557E55770020556E4F5DE
:1008540058F559E55660030209D9E557B408004034
:10086400030209D990086FF8282873020887020840
:100874009302088A02089302088D020893020890E2
:1008840002089602093F0209AC02094B0209CE0292
:1008940009CE0209D10559E55970020558640A4583
:1008A40058700D0557E55770020556E4F558F5598B
:1008B400E55660030209D9E557B40800400302096C
:1008C400D99008CCF82828730208E40208EE02083C
:1008D400E60208EE0208E90208EE0208EC0208F15A
:1008E40080590209AC0209CE80680209CE0209D1FE
:1008F4000559E55970020558640A4558700D0557A5
:10090400E55770020556E4F558F559E556600302BB
:1009140009D9E557B4080040030209D9900927F81A
:1009240028287302093F0209610209480209610289
:10093400094B0209610209560209631209DAFFE44C
:10094400FD0209CB0209CE9000021209F3FF7D02D9
:1009540080759000031209F3FF7D03806A806B8029
:100964006C0559E55970020558640A4558700D051F
:1009740057E55770020556E4F558F559E556705594
:10098400E557B40800504E900992F82828730209DC
:10099400AA0209CE0209AC0209CE0209B70209CEA5
:1009A4000209C20209D180229000011209F3FF7DDD
:1009B4000180149000021209F3FF7D028009900067
:1009C400031209F3FF7D03020C25021128121128DA
:0609D400E4F556F5572280
:051120002D2D2D2D0016
:101043001210DE7BFF7A1179207DD07C07120FDB33
:10105300C2A4C2A51210F11211041203B612111682
:08106300120ABB12101980F201
:10110400E58954F004F589D28CC28D758AA0758C5A
:021114001522A2
:1010F100E589540F2410F589C28EC28F758B18753E
:031101008DFC2240
:0C000E00E4FFE4FE0EBE32FC0FBF0EF655
:01001A0022C3
:04106B00AB07AA061F
:10106F009000007C007D05AF03AE02120A66C3E557
:0D107F00829FE5839E500612000EA380E6BE
:01108C002241
:0B0E5C0001510002520000025400008F
:1010C6000553E55370020552B5070CE552B5060700
:0810D600B2A6E4F552F5532225
:10108D000555E55570020554B4540DE554B40708E3
:10109D006351FFE4F554F555E55160031210C62276
:03112500D2A6222D
:03000000020D5599
:0C0D5500787FE4F6D8FD75815B020D9CF0
:1009DA00BB010689828A83E0225002E722BBFE021B
:0909EA00E32289828A83E493224E
:1009F300BB010CE58229F582E5833AF583E02250B9
:100A030006E92582F8E622BBFE06E92582F8E22202
:0D0A1300E58229F582E5833AF583E493221C
:100A2000BB010689828A83F0225002F722BBFE01B5
:020A3000F322AF
:100A3200F8BB010DE58229F582E5833AF583E8F0FA
:100A4200225006E92582C8F622BBFE05E92582C8A6
:020A5200F2228E
:100A5400EF8DF0A4A8F0CF8CF0A428CE8DF0A42EB6
:020A6400FE2270
:100A6600BC000BBE0029EF8DF084FFADF022E4CC74
:100A7600F875F008EF2FFFEE33FEEC33FCEE9DEC3D
:100A8600984005FCEE9DFE0FD5F0E9E4CEFD22ED83
:100A9600F8F5F0EE8420D21CFEADF075F008EF2FCD
:100AA600FFED33FD4007985006D5F0F222C398FDBE
:050AB6000FD5F0EA225B
:100D6100021043E493A3F8E493A34003F68001F255
:100D710008DFF48029E493A3F85407240CC8C33393
:100D8100C4540F4420C8834004F456800146F6DF62
:100D9100E4800B0102040810204080900DE1E47E04
:100DA100019360BCA3FF543F30E509541FFEE49357
:100DB100A360010ECF54C025E060A840B8E493A31E
:100DC100FAE493A3F8E493A3C8C582C8CAC583CA49
:100DD100F0A3C8C582C8CAC583CADFE9DEE780BE01
:010E6700008A
:00000001FF
