:0303D70001220000
:040149008F1C8D1D5D
:10014D00E4F51EE51C6401704430800930810630F1
:10015D00820320832112040E208002051E208104BB
:10016D00051E051E2082067404251EF51E2083061D
:10017D007408251EF51E851E22E51D6403704C3086
:10018D0080FD3081FA3082F720834080F2E51C64D7
:10019D0002703830800930810630820320831B12B3
:1001AD00040E20800363220120810363220220823A
:1001BD0003632204208303632208E51DB4030C307E
:0D01CD0080FD3081FA3082F73083F4AF22DC
:0101DA002202
:1003F500C0F9A4B0999282F880908883C6A1868EB0
:0904050089C7C8C18CA3BFFF9197
:090006009000011200C7FF7D010A
:10000F007E01EDC394004018EDD394035012EEA877
:10001F0005088002C333D8FCFEE5A054F02EF5A0EE
:10002F00EFC39430400CEFD394395006EF9003C5D3
:10003F008061EFC39441400CEFD394465006EF908C
:10004F0003BE804FBF4806900405E48046BF4C06B0
:10005F00900406E4803DBF6E06900407E48034BF31
:10006F007506900408E4802BBF7006900409E480A5
:10007F0022BF6F0690040AE48019BF2D0690040B6F
:10008F00E48010BF2A0690040CE48007BF79079024
:0F009F00040DE493F59012040E7590FF02040E09
:0A0267008B168A1789188C198D1A5E
:10027100E4F51BF51BAE19AF1A7C007D281200F4C2
:10028100C3E51B9FE49E5040AB16AA17A9181200A4
:10029100AEFFE4FD12000FAB16AA17A91812000653
:1002A100AB16AA17A9189000021200C7FF7D02120F
:1002B100000FAB16AA17A9189000031200C7FF7D03
:0802C1000312000F051B80ADC4
:0102C9002212
:100326008B1F8A2089211200AEFFE4FD12000FAB5D
:100336001FAA20A921120006AB1FAA20A9219000FE
:10034600021200C7FF7D0212000FAB1FAA20A921CF
:0C0356009000031200C7FF7D0302000F9F
:050444002D2D2D2D00FF
:10038E0012043B1204311204267BFF7A0479447D59
:10039E00D07C07120267B2A4B2A57FF47E011203CD
:0703AE00B5B2A4B2A580F373
:050449002D2D2D2D00FA
:1003DA00020E0000021000000212000002140000C7
:0A03EA00010D02050830303030002C
:0402CA00AB07AA06CE
:1002CE007C007D0A1200F4ED2430F50B7C007D0AD3
:1002DE00AF03AE021200F47C007D0A1200F4ED248E
:1002EE0030F50A7C007D64AF03AE021200F47C0090
:1002FE007D0A1200F4ED2430F509AE02AF037C0343
:10030E007DE81200F47C007D0A1200F4ED2430F535
:07031E00087B007A0079085A
:0103250022B5
:10036200E50D24FD600D14601024027015AF11AE6E
:1003720010800AAF13AE128004AF15AE141202CA77
:0C03820080067BFF7A04794912032622D2
:09043B00D2AFD2A8D288C2B822C7
:0300030002044EA6
:01044E00327B
:0A043100E58954F004F589D28C220D
:0B042600E589540F2410F589D28E22C6
:0C040E00C28F758B78758DEC308FFD224D
:0C041A00C28F758BB0758D3C308FFD22B9
:0403B500AB07AA06E2
:1003B9009000007C007D32AF03AE021200F4C3E569
:0D03C900829FE5839E500612041AA380E671
:0103D6002204
:030000000201DB1F
:0C01DB00787FE4F6D8FD75812202022234
:1000AE00BB010689828A83E0225002E722BBFE0250
:0900BE00E32289828A83E4932283
:1000C700BB010CE58229F582E5833AF583E02250EE
:1000D70006E92582F8E622BBFE06E92582F8E22238
:0D00E700E58229F582E5833AF583E4932252
:1000F400BC000BBE0029EF8DF084FFADF022E4CCF0
:10010400F875F008EF2FFFEE33FEEC33FCEE9DECB8
:10011400984005FCEE9DFE0FD5F0E9E4CEFD22EDFE
:10012400F8F5F0EE8420D21CFEADF075F008EF2F48
:10013400FFED33FD4007985006D5F0F222C398FD39
:050144000FD5F0EA22D6
:1001E70002038EE493A3F8E493A34003F68001F29D
:1001F70008DFF48029E493A3F85407240CC8C33319
:10020700C4540F4420C8834004F456800146F6DFE7
:10021700E4800B01020408102040809003D7E47E9D
:10022700019360BCA3FF543F30E509541FFEE493DC
:10023700A360010ECF54C025E060A840B8E493A3A3
:10024700FAE493A3F8E493A3C8C582C8CAC583CACE
:10025700F0A3C8C582C8CAC583CADFE9DEE780BE86
:0103F4000008
:00000001FF
