:050006002D2D2D2D0041
:100B8200022A00150228000B022C000E0222000A83
:100B9200022607E8022E000002130000021A0000DB
:100BA20005093030303000050E3030303000051588
:100BB2003030303000051D3030303000011C020171
:0E0BC20024060130000108010131000125FF69
:1003AA00E52FB4E812E52EB4030D052BE52B7002F8
:1003BA00052AE4F52EF52FC3E52B943CE52A940093
:1003CA0040140529E5297002052874C4252BF52B4C
:1003DA0074FF352AF52AC3E5299418E528940040C4
:1003EA0014052DE52D7002052C74E82529F52974CC
:1003FA00FF3528F528C3E5279410E5269427400CF5
:10040A0074F02527F52774D83526F526D3E52394E5
:10041A000CE52294004006752200752301E5275455
:10042A0003700EAE26AF27FC7D64120634ED4C70C5
:10043A0012AE26AF277C017D90120634ED4C600384
:10044A000204F9E52260030205A7E52314B40C00AF
:10045A0040030205A790046D75F003A4C58325F037
:10046A00C583730204910204C30204910204DE02EA
:10047A0004910204DE0204910204910204DE0204E1
:10048A00910204DE0204AAD3E52D941FE52C940000
:10049A0050030205A70523E5237002052202055031
:1004AA00D3E52D941FE52C940050030205A70527D8
:1004BA00E52770020526020567D3E52D941DE52C74
:1004CA00940050030205A70523E523700205227450
:1004DA00E302059DD3E52D941EE52C9400500302FA
:1004EA0005A70523E5237002052274E202059DE5AE
:1004FA002260030205A7E52314B40C004003020599
:10050A00A790051975F003A4C58325F0C583730266
:10051A00053D02057102053D02058802053D0205F9
:10052A008802053D02053D02058802053D0205884F
:10053A00020554D3E52D941FE52C9400405F052352
:10054A00E5237002052274E18049D3E52D941FE565
:10055A002C940040480527E52770020526752200DD
:10056A0075230174E1802CD3E52D941CE52C9400AD
:10057A00402B0523E5237002052274E48015D3E598
:10058A002D941EE52C940040140523E523700205E2
:0E059A002274E2252DF52D74FF352CF52C2250
:100BE2000531E531B40F066325FFE4F531E51C2438
:100BF200FD601314601E2402702CE5257B007A0030
:100C02007909601D8018E5257B007A00790E600263
:100C1200800C800DE5257B007A0079156003020CBB
:070C220069AD0812068922EA
:10089D001203AAAE28AF297C007D64120622E52B37
:0C08AD002FFFE52A3EFE7B007A0079094F
:1008B9008E398F3A8B3B8A3C893D7C007D0A120632
:1008C90034ED2430900003120600AE39AF3A7C00B3
:1008D9007D0A1206347C007D0A120634ED2430AB01
:1008E9003BAA3CA93D900002120600AE39AF3A7C02
:1008F900007D641206347C007D0A120634ED243032
:10090900AB3BAA3CA93D900001120600AE39AF3AB3
:100919007C037DE81206347C007D0A120634ED243E
:0A09290030AB3BAA3CA93D0205EEED
:100C2900E52424F96030047036E51C24FD600F14B6
:100C39006014240270187B007A007909801E7B00F9
:100C49007A00790E80167B007A007915800E7BFF79
:100C59007A00790680067B007A00791D120C6922D8
:0A0D7100E5306003D28E22C28E220C
:100AB700E4FF0F1207F3EF30E00FE524B4060A0551
:100AC7001CE51CB40503751C02EF30E008E524B4EF
:100AD70007036330FFEFC31330E021E4F530C28E24
:100AE700C28F758BF0758DD8F513F514F51AF51BB4
:100AF700751D30751E30751F30752030EF13135478
:100B07003F30E00A0524E524B40803752406EFC442
:070B1700540F30E002D2A8E8
:010B1E0022B4
:03000B00020A43A3
:100A4300C0E0C0F0C083C082C0D075D000C000C079
:100A530001C002C003C004C005C006C007C28D7533
:100A63008AA0758C15052FE52F7002052E12089D9F
:100A7300AE22AF237C007D64120622E52D2FFFE515
:100A83002C3EFE7B007A00790E1208B97B007A00B7
:100A93007915AF27AE261208B9D007D006D005D0F6
:100AA30004D003D002D001D000D0D0D082D083D0E4
:040AB300F0D0E0326D
:03001B000209BF18
:1009BF00C0E0C0F0C083C082C0D075D000C000C0FE
:1009CF0001C002C003C004C005C006C007C28F75B6
:1009DF008BF0758DD8051BE51B7002051A646445F5
:1009EF001A700E0514E51470020513751A00751BA5
:1009FF0000E514643D45137004F513F514AE13AF01
:100A0F00147C007D64120622E51B2FFFE51A3EFEC3
:100A1F007B007A00791D1208B9D007D006D005D017
:100A2F0004D003D002D001D000D0D0D082D083D058
:040A3F00F0D0E032E1
:0300030002001EDA
:10001E00C0E0C0F0C083C082C0D075D000C000C0A8
:0D002E0001C002C003C004C005C006C00729
:10003B00753701754901750801751C02C2A8E537B2
:05004B00700302038FA9
:10005000753800120BE27F011207F38F38E5383054
:10006000E00A051CE51CB40503751C02E538C31342
:1000700030E00A0508E508B40503750801E5381302
:1000800013543F20E003020178E51CB4043AE5086C
:1000900024FE601814601914601F24036003020119
:1000A0004C0527E527703E052602014C740A8002A4
:1000B00074642527F527E4800874E82527F527745C
:1000C000033526F52602014CE51CB4033EE5082461
:1000D000FE601414601E1460252403706F052DE566
:1000E0002D7002052C8065740A252DF52DE4352C24
:1000F000F52C80580523E52370020522804E740AF2
:100100002523F523E43522F5228041E51CB4023C89
:10011000E50824FE601414601E1460252403702C6E
:10012000052BE52B7026052A8022740A252BF52B3A
:10013000E4352AF52A80150529E529700F05288060
:100140000B740A2529F529E43528F52812089DAEF7
:1001500022AF237C007D64120622E52D2FFFE52CC3
:100160003EFE7B007A00790E1208B97B007A007996
:1001700015AF27AE261208B9E538131313541F2004
:10018000E00302037EE51C64046003020216E50836
:1001900024FE602814603B146054240360030203AF
:1001A00052C3E5279401E526940050028001C34024
:1001B0005CE527152770021526020352C3E5279434
:1001C0000AE526940050028001C3400474F68014AE
:1001D000803BC3E5279464E526940050028001C368
:1001E000400A749C2527F52774FF801A801FC3E5F9
:1001F0002794E8E526940350028001C3400F741849
:100200002527F52774FC3526F526020352752600AE
:10021000752700020352E51C640360030202B8E57F
:100220000824FE602814604D1460652403600302F6
:100230000352C3E52D9401E52C940050028001C3C4
:10024000402AE52D152D7002152C020352C3E52D11
:10025000940AE52C940050028001C3400F74F625E7
:100260002DF52D74FF352CF52C020352752C0075DD
:100270002D00020352C3E5239401E52294005002AD
:100280008001C3402AE52315237002152202035280
:10029000C3E523940AE522940050028001C3400F75
:1002A00074F62523F52374FF3522F52202035275D7
:1002B0002200752300020352E51C6402600302035E
:1002C00052E50824FE602714604A1460612403602C
:1002D00003020352C3E52B9401E52A9400500280E7
:1002E00001C34028E52B152B7002152A8064C3E555
:1002F0002B940AE52A940050028001C3400E74F644
:10030000252BF52B74FF352AF52A8046752A0075B2
:100310002B00803EC3E5299401E52894005002801B
:1003200001C34028E5291529700215288024C3E55A
:1003300029940AE528940050028001C3400E74F607
:100340002529F52974FF3528F528800675280075BC
:10035000290012089DAE22AF237C007D6412062284
:10036000E52D2FFFE52C3EFE7B007A00790E12086A
:10037000B97B007A007915AF27AE261208B9E538A7
:0C038000C4540F20E00302004975370050
:03038C0002004923
:10038F00D007D006D005D004D003D002D001D000C2
:0B039F00D0D0D082D083D0F0D0E0326C
:100D6000D2AFD2A8D288D2B8D2A9C2B9D2ABD2BBA4
:010D70002260
:060BD000014A000149008A
:0207F3008F393C
:1007F500E4F53AE5396401705430800F30810C30EE
:10080500820930830630840320853CE549703B121C
:10081500000E208002053A208104053A053A20821F
:10082500067404253AF53A2083067408253AF53A04
:100835002084067410253AF53A2085067420253A59
:10084500F53A7549018003E4F549853A4AE5396485
:1008550002704230800F30810C30820930830630BF
:10086500840320852DE549702C12000E208003633A
:100875004A01208103634A02208203634A042083DC
:1008850003634A08208403634A10208508634A20CD
:070895008003754901AF4A21
:01089C002239
:100D0A00C0F9A4B0999282F880908883C6A1868E91
:090D1A0089C7C8C18CA3BFFF9179
:0F074500AB39AA3AA93B9000011205C1FF7D0113
:100754007E01EDC394004018EDD394035012EEA82B
:1007640005088002C333D8FCFEE5A054F02EF5A0A2
:10077400EFC39430400CEFD394395006EF900CDA69
:100784008061EFC39441400CEFD394465006EF9040
:100794000CD3804FBF4806900D1AE48046BF4C0628
:1007A400900D1BE4803DBF6E06900D1CE48034BFA9
:1007B4007506900D1DE4802BBF7006900D1EE4801D
:1007C40022BF6F06900D1FE48019BF2D06900D20E7
:1007D400E48010BF2A06900D21E48007BF790790BA
:0F07E4000D22E493F59012000E7590FF02000EA7
:0A0B1F008B3E8A3F89408C418D42D5
:100B2900E4F543F543AE41AF427C007D281206341B
:100B3900C3E5439FE49E5040AB3EAA3FA94012053E
:100B4900A8FFE4FD120754AB3EAA3FA94012074B88
:100B5900AB3EAA3FA9409000021205C1FF7D0212D7
:100B69000754AB3EAA3FA9409000031205C1FF7D7F
:080B790003120754054380AD8F
:010B81002251
:100C69008B398A3A893B1205A8FFE4FD120754AB78
:100C790039AA3AA93B12074BAB39AA3AA93B9000CA
:100C8900021205C1FF7D02120754AB39AA3AA93BEA
:0C0C99009000031205C1FF7D0302075408
:100689008B398A3A893BED24FE6034146054147026
:100699000302071D24036003020744AB39AA3AA9E0
:1006A9003B1205A8FFE4FD120754120745AB39AA0E
:1006B9003AA93B9000021205C1FF7D02020741AB36
:1006C90039AA3AA93B1205A8FFE4FD1207541207FB
:1006D90045AB39AA3AA93B9000031205C1FF7D0336
:1006E9008056AB39AA3AA93B1205A8FFE4FD1207C7
:1006F90054AB39AA3AA93B9000021205C1FF7D0209
:10070900120754AB39AA3AA93B9000031205C1FF5D
:100719007D038024120745AB39AA3AA93B90000210
:100729001205C1FF7D02120754AB39AA3AA93B90C1
:0C07390000031205C1FF7D0312075422CB
:050D7B002D2D2D2D00BF
:100CA500120D607BFF7A0D797B7DD07C07120B1FBF
:100CB500B2A4B2A5120D3B120D4E7F327E00120C6E
:030CC500EA80F7CB
:100D4E00E58954F004F589D28CC28D758AA0758C14
:020D5E0015225C
:100D3B00E589540F2410F589C28EC28F758B1875F7
:030D4B008DFC22FA
:0C000E00E4FFE4FE0EBE75FC0FBF0EF612
:01001A0022C3
:040CC800AB07AA06C6
:100CCC009000007C007D05AF03AE02120634C3E534
:0D0CDC00829FE5839E500612000EA380E665
:010CE90022E8
:0B0BD60001440002450000024700003F
:100D23000546E54670020545B5070CE545B50607DA
:080D3300B2A6E4F545F54622E5
:100CEA000548E54870020547B4100DE547B44508C4
:100CFA006344FFE4F547F548E5446003120D2322F7
:03000000020933BF
:0C093300787FE4F6D8FD75814A02097A4D
:1005A800BB010689828A83E0225002E722BBFE0251
:0905B800E32289828A83E4932284
:1005C100BB010CE58229F582E5833AF583E02250EF
:1005D10006E92582F8E622BBFE06E92582F8E22239
:0D05E100E58229F582E5833AF583E4932253
:1005EE00BB010689828A83F0225002F722BBFE01EC
:0205FE00F322E6
:10060000F8BB010DE58229F582E5833AF583E8F030
:10061000225006E92582C8F622BBFE05E92582C8DC
:02062000F222C4
:10062200EF8DF0A4A8F0CF8CF0A428CE8DF0A42EEC
:02063200FE22A6
:10063400BC000BBE0029EF8DF084FFADF022E4CCAA
:10064400F875F008EF2FFFEE33FEEC33FCEE9DEC73
:10065400984005FCEE9DFE0FD5F0E9E4CEFD22EDB9
:10066400F8F5F0EE8420D21CFEADF075F008EF2F03
:10067400FFED33FD4007985006D5F0F222C398FDF4
:050684000FD5F0EA2291
:10093F00020CA5E493A3F8E493A34003F68001F21D
:10094F0008DFF48029E493A3F85407240CC8C333B9
:10095F00C4540F4420C8834004F456800146F6DF88
:10096F00E4800B0102040810204080900B82E47E8B
:10097F00019360BCA3FF543F30E509541FFEE4937D
:10098F00A360010ECF54C025E060A840B8E493A344
:10099F00FAE493A3F8E493A3C8C582C8CAC583CA6F
:1009AF00F0A3C8C582C8CAC583CADFE9DEE780BE27
:010BE1000013
:00000001FF
