:03040600011F00D3
:040151008F1C8D1D55
:10015500E4F51EE51C6401704430800930810630E9
:10016500820320832112044F208002051E20810472
:10017500051E051E2082067404251EF51E20830615
:100185007408251EF51E851E1FE51D6403704C3081
:1001950080FD3081FA3082F720834080F2E51C64CF
:1001A50002703830800930810630820320831B12AB
:1001B500044F208003631F01208103631F022082F7
:1001C50003631F04208303631F08E51DB4030C307C
:0D01D50080FD3081FA3082F73083F4AF1FD7
:0101E20022FA
:10042400C0F9A4B0999282F880908883C6A1868E80
:0904340089C7C8C18CA3BFFF9168
:09000E009000011200CFFF7D01FA
:100017007E01EDC394004018EDD394035012EEA86F
:1000270005088002C333D8FCFEE5A054F02EF5A0E6
:10003700EFC39430400CEFD394395006EF9003F49C
:100047008061EFC39441400CEFD394465006EF9084
:1000570003ED804FBF4806900434E48046BF4C064A
:10006700900435E4803DBF6E06900436E48034BFCB
:100077007506900437E4802BBF7006900438E4803F
:1000870022BF6F06900439E48019BF2D0690043A09
:10009700E48010BF2A0690043BE48007BF790790ED
:0F00A700043CE493F59012044F7590FF02044F50
:0A026F008B168A1789188C198D1A56
:10027900E4F51BF51BAE19AF1A7C007D281200FCB2
:10028900C3E51B9FE49E5040AB16AA17A91812009C
:10029900B6FFE4FD120017AB16AA17A91812000E33
:1002A900AB16AA17A9189000021200CFFF7D0212FF
:1002B9000017AB16AA17A9189000031200CFFF7DEB
:0802C90003120017051B80ADB4
:0102D100220A
:10032E008B168A1789181200B6FFE4FD120017AB60
:10033E0016AA17A91812000EAB16AA17A918900024
:10034E00021200CFFF7D02120017AB16AA17A918D2
:0C035E009000031200CFFF7D0302001787
:050006002D2D2D2D0041
:1003E7001204671204727BFF7A0079067DD07C07BE
:0F03F70012026FB2A4B2A512043D12039980FB4B
:05047D002D2D2D2D00C6
:10040900020E000002100000021200000214000097
:0A041900010D0205083030303000FC
:0402D200AB07AA06C6
:1002D6007C007D0A1200FCED2430F50B7C007D0AC3
:1002E600AF03AE021200FC7C007D0A1200FCED2476
:1002F60030F50A7C007D64AF03AE021200FC7C0080
:100306007D0A1200FCED2430F509AE02AF037C0332
:100316007DE81200FC7C007D0A1200FCED2430F51D
:07032600087B007A00790852
:01032D0022AD
:10039900E50D24FD600D14601024027015AF11AE37
:1003A90010800AAF13AE128004AF15AE141202D238
:0C03B90080067BFF7A04797D12032E225F
:03000B0002036A83
:10036A00C0E0C0D0C28D758AA0758C15050FE50F47
:10037A007002050EB4E813E50EB4030E0511E5117B
:0F038A0070020510750E00750F00D0D0D0E03254
:0B046700D2AFD2A8D288C2B8D2A9221E
:0300030002048272
:010482003247
:10043D00E58954F004F589D28CC28D758AA0758C2E
:02044D00152276
:0B047200E589540F2410F589D28E227A
:0C044F00C28F758B78758DEC308FFD220C
:0C045B00C28F758BB0758D3C308FFD2278
:0403C500AB07AA06D2
:1003C9009000007C007D32AF03AE021200FCC3E551
:0D03D900829FE5839E500612045BA380E620
:0103E60022F4
:030000000201E317
:0C01E300787FE4F6D8FD75811F02022A27
:1000B600BB010689828A83E0225002E722BBFE0248
:0900C600E32289828A83E493227B
:1000CF00BB010CE58229F582E5833AF583E02250E6
:1000DF0006E92582F8E622BBFE06E92582F8E22230
:0D00EF00E58229F582E5833AF583E493224A
:1000FC00BC000BBE0029EF8DF084FFADF022E4CCE8
:10010C00F875F008EF2FFFEE33FEEC33FCEE9DECB0
:10011C00984005FCEE9DFE0FD5F0E9E4CEFD22EDF6
:10012C00F8F5F0EE8420D21CFEADF075F008EF2F40
:10013C00FFED33FD4007985006D5F0F222C398FD31
:05014C000FD5F0EA22CE
:1001EF000203E7E493A3F8E493A34003F68001F23C
:1001FF0008DFF48029E493A3F85407240CC8C33311
:10020F00C4540F4420C8834004F456800146F6DFDF
:10021F00E4800B0102040810204080900406E47E65
:10022F00019360BCA3FF543F30E509541FFEE493D4
:10023F00A360010ECF54C025E060A840B8E493A39B
:10024F00FAE493A3F8E493A3C8C582C8CAC583CAC6
:10025F00F0A3C8C582C8CAC583CADFE9DEE780BE7E
:0104230000D8
:00000001FF
